{
  "contractName": "Caller",
  "abi": [
    {
      "constant": false,
      "inputs": [
        {
          "name": "_contract",
          "type": "address"
        }
      ],
      "name": "makeCalls",
      "outputs": [],
      "payable": false,
      "stateMutability": "nonpayable",
      "type": "function"
    }
  ],
  "bytecode": "0x608060405234801561001057600080fd5b5061031a806100206000396000f300608060405260043610610041576000357c0100000000000000000000000000000000000000000000000000000000900463ffffffff168063444c35df14610046575b600080fd5b34801561005257600080fd5b50610087600480360381019080803573ffffffffffffffffffffffffffffffffffffffff169060200190929190505050610089565b005b8073ffffffffffffffffffffffffffffffffffffffff16630d8ea1806040518163ffffffff167c0100000000000000000000000000000000000000000000000000000000028152600401600060405180830381600087803b1580156100ed57600080fd5b505af1158015610101573d6000803e3d6000fd5b5050505073__CalledLib_____________________________630d8ea1806040518163ffffffff167c010000000000000000000000000000000000000000000000000000000002815260040160006040518083038186803b15801561016557600080fd5b505af4158015610179573d6000803e3d6000fd5b505050508073ffffffffffffffffffffffffffffffffffffffff1660405180807f63616c6c656446756e6374696f6e282900000000000000000000000000000000815250601001905060405180910390207c010000000000000000000000000000000000000000000000000000000090046040518163ffffffff167c01000000000000000000000000000000000000000000000000000000000281526004016000604051808303816000875af192505050151561023557600080fd5b8073ffffffffffffffffffffffffffffffffffffffff1660405180807f63616c6c656446756e6374696f6e282900000000000000000000000000000000815250601001905060405180910390207c010000000000000000000000000000000000000000000000000000000090046040518163ffffffff167c0100000000000000000000000000000000000000000000000000000000028152600401600060405180830381865af49250505015156102eb57600080fd5b505600a165627a7a7230582027ba0d4976b641095f4a90c6fdb139596fd404a92d8a2b8567d84b16d9786ecd0029",
  "source": "// SPDX-License-Identifier: MIT\npragma solidity ^0.4.22;\n\ncontract CalledContract {\n    event CallEvent(address sender, address origin, address from);\n\n    function calledFunction() public {\n        emit CallEvent(msg.sender, tx.origin, this);\n    }\n}\n\nlibrary CalledLib {\n    event CallEvent(address sender, address origin, address  from);\n\n    function calledFunction() public {\n        emit CallEvent(msg.sender, tx.origin, this);\n    }\n}\n\ncontract Caller {\n    function makeCalls(CalledContract _contract) public {\n        _contract.calledFunction();\n        CalledLib.calledFunction();\n\n        require(address(_contract).call(bytes4(keccak256(\"calledFunction()\"))));\n        require(address(_contract).delegatecall(bytes4(keccak256(\"calledFunction()\"))));\n    }\n}\n",
  "sourcePath": "/Users/davybraun/Code/learning/blockchain/solidity/delegatecall/contracts/CallExamples.sol",
  "compiler": {
    "name": "solc",
    "version": "0.4.22+commit.4cb486ee.Emscripten.clang"
  },
  "schemaVersion": "3.4.0",
  "updatedAt": "2021-05-14T08:39:07.717Z",
  "networkType": "ethereum",
  "devdoc": {
    "methods": {}
  },
  "userdoc": {
    "methods": {}
  }
}